:100000000C94E3000C940B010C940B010C940B0169
:100010000C940B010C940B010C940B010C940B0130
:100020000C940B010C940B010C9419150C9488156D
:100030000C940B010C940B010C940B010C940B0110
:100040000C940B010C940B010C940B010C940B0100
:100050000C940B010C940B010C940B010C94CF1419
:100060000C940B010C940B010C940B010C940B01E0
:100070000C940B010C940B010C940B010C940B01D0
:100080000C940B010C940B010C940B010C940B01C0
:100090000C940B010C940B010C940B010C940B01B0
:1000A0000C940B010C940B010C940B01080B000237
:1000B0000202000009040000010202000005240001
:1000C0001001052401010104240206052406000193
:1000D0000705810310004009040100020A00000026
:1000E00007050202400000070583024000000403E8
:1000F000090412010002EF0201406D0439C500013C
:1001000001020301556E6B6E6F776E004849442DF6
:10011000636F6D706C69616E74206D6F75736500CF
:100120000000000200090F0000030401000C0000A1
:1001300000000000000000000000000000000000BF
:10014000000000250028002B002E003100000000D8
:1001500000240027002A002D0030000404040404B9
:10016000030405020202020403020202020606065A
:1001700006060604040202020404040802011040F8
:100180008040102040804080080204018040201000
:1001900002011080102040402005010902A10185C4
:1001A0000105091901290815002501950875018126
:1001B0000205010930093109381581257F75089537
:1001C000038106C0ED1711241FBECFEFDAE0DEBFBA
:1001D000CDBF22E0A6E9B1E001C01D92A33EB20767
:1001E000E1F711E0A0E0B1E0E2E6F8E302C005903B
:1001F0000D92A639B107D9F710E0C3EED0E004C0E4
:100200002197FE010E94221CC23ED107C9F70E941D
:100210003B190C942F1C0C940000CF93DF93FC012E
:10022000818190911302482F490F5527551F48305F
:1002300051059CF5A281B381109709F52FE032E0BA
:1002400033832283208120931102809312028091B4
:100250001402820F808320911502A22FB091160202
:100260008A2F821B8917E8F481813D91C82FD0E045
:10027000C45FDE4F38838F5F8183F2CFD901189638
:100280002D913C91199721153105C1F72FE032E0EE
:1002900019963C932E931897D5CF80E0DF91CF919C
:1002A000089581E0FBCF8CBD9DBD089590E0FC01D9
:1002B000E658FE4F2491855A9E4FFC018491882375
:1002C00099F090E0880F991FFC01E35BFE4FA59128
:1002D000B491FC01E15CFE4F859194918FB7F89445
:1002E000EC91E22BEC938FBF0895FC018091BD014E
:1002F000882311F13FB7F89482E08093E9002091C0
:10030000F200822F90E01816190614F481E090E0B4
:10031000882339F0289844E64093BC014091F100CD
:100320004083222339F02091F200211103C02BE6F3
:100330002093E8003FBF08958FEF9FEF08953FB7E8
:10034000F8948091B8019091B901A091BA01B0914F
:10035000BB0126B5A89B05C02F3F19F00196A11D32
:10036000B11D3FBFBA2FA92F982F8827BC01CD01FF
:10037000620F711D811D911D42E0660F771F881F5E
:10038000991F4A95D1F708958F929F92AF92BF928D
:10039000CF92DF92EF92FF924B015C010E949F018E
:1003A0006B017C010E949F016C197D098E099F09D8
:1003B000683E734081059105A8F321E0821A9108F7
:1003C000A108B10888EEC80E83E0D81EE11CF11C1C
:1003D00081149104A104B10429F7FF90EF90DF90FC
:1003E000CF90BF90AF909F908F9008952FB7F894C3
:1003F0006091B4017091B5018091B6019091B701FF
:100400002FBF08954091A5015091A6012091A3010D
:100410003091A40142175307B4F49091E80095700D
:10042000E1F39091E80092FD19C08093F100809172
:10043000A5019091A60101968F739927892B19F434
:100440008EEF8093E8008091A5019091A60101961E
:100450009093A6018093A50181E0089580E008951E
:10046000DF92EF92FF920F931F93CF93DF93D82EDB
:100470008A01EB017B01E40EF51ECE15DF0559F074
:10048000D7FE12C0FE0184910E94020221968111C2
:10049000F4CF0FEF1FEFC801DF91CF911F910F91A4
:1004A000FF90EF90DF9008958881EECF2FB7F894FA
:1004B00087708093E9009091E800892F807295FF02
:1004C00004C09091F20080E4891B2FBF08957F92B1
:1004D0008F929F92AF92BF92CF92DF92EF92FF9254
:1004E0000F931F93CF93DF93C82E8B017A018091D6
:1004F000BD01811110C08FEF9FEFDF91CF911F9150
:100500000F91FF90EF90DF90CF90BF90AF909F90B2
:100510008F907F9008958091A90180FF05C0809100
:10052000E00082608093E000CE2DDF2DD12C8AEF99
:10053000B82E8C2D8770982E8C2D8072882E8C2D45
:100540008074782E9AE3A92E209719F4DD2009F4FF
:1005500052C08C2D0E94560281110AC0BA94BB2051
:1005600051F261E070E080E090E00E94C401ECCFC5
:100570008C171D0611F00CF08C2F9FB7F8949092F9
:10058000E9002091E80025FD02C09FBFDDCF282FA4
:1005900030E0C21BD30B882029F08150A0F01092CC
:1005A000F100FBCFF801C7FC0AC0815050F0419127
:1005B0004093F100FACF44914093F100319681507D
:1005C000D0F7020F131FDD2021F0A092E800D12CFC
:1005D000DCCF8091E80085FD07C0A092E800DD2413
:1005E000D394209791F2F3CF209779F6772069F290
:1005F000A092E800CACF5D9884E68093A801C70165
:100600007CCF615030F02091F100FC0120830196F5
:10061000F8CF289884E68093BC01089580919B01CF
:1006200081110DC082E08093970184E0809398014E
:1006300010929A011092990181E080939B0187E9C1
:1006400091E008951F93CF93DF9300D000D01F92C5
:10065000CDB7DEB79091360299838A836B834C8342
:100660008091200281112AC011E01093130210938F
:10067000140289E192E09093160280931502109281
:1006800018021092170285E391E090931002809374
:100690000F0210921B0210921A0210921D02109269
:1006A0001C0210931E0210931F0281EC809319020A
:1006B0000E940E030E940D011093200281E08D83A1
:1006C00041E050E0BE016B5F7F4F809112020E94BB
:1006D000670297FD0AC08091120244E050E0BE011B
:1006E0006F5F7F4F80640E9467020F900F900F90A2
:1006F0000F900F90DF91CF911F9108959091360246
:1007000080958923981739F08093360240E060E0A5
:1007100080E00C942203089590913602892B98175B
:1007200039F08093360240E060E080E00C942203D0
:1007300008950F931F93CF93DF931F92CDB7DEB72A
:1007400082E0898342E450E06CEA70E080E80E9435
:1007500030020E940E03DC0112960D911C910115CE
:10076000110589F0D801ED91FC910280F381E02D13
:10077000BE016F5F7F4FC801099597FD04C0F80166
:1007800000851185ECCF89810F90DF91CF911F916A
:100790000F910895CF93DF93EC0180910B01882393
:1007A00031F083E00E9467021816190634F081E0E8
:1007B00090E09B838A8380E090E0DF91CF91089561
:1007C000CF93DF931F92CDB7DEB76983DC01ED9144
:1007D000FC910280F381E02D41E050E0BE016F5FAB
:1007E0007F4F09950F90DF91CF91089583E080931B
:1007F000E9008091F200882319F08AE38093E800F1
:10080000089583E00E94560290E00895CF93DF930D
:100810001F92CDB7DEB7FC018485958597FD08C092
:100820002FEF3FEF358724870F90DF91CF91089509
:10083000CE0101960E947501019719F4898190E01B
:10084000F3CF8FEF9FEFF0CF0F931F93CF93DF93F3
:100850001F92CDB7DEB78C01FC018485958597FF8B
:100860000BC0CE0101960E947501019771F4898138
:1008700090E0F80195878487F801848595850F902D
:10088000DF91CF911F910F9108958FEF9FEFF1CFDF
:10089000FC018485958597FD0BC09FB7F89482E095
:1008A0008093E9008091F2009FBF90E00196089547
:1008B0009FB7F89482E08093E9008091F2009FBF97
:1008C00090E00895DC01FB0112962C91129784812F
:1008D00095812817190641F491818081813A31F47C
:1008E0009D7F81E0913009F080E008958132E1F749
:1008F0009B3029F482811F968C9381E008959A3071
:1009000099F7828150968C93F8CFDC01FB0188E443
:10091000808389E4818384E482831D969C911D9762
:100920009F709F5B93831D968D919C9124E096957B
:1009300087952A95E1F78F708F5B848385E0089512
:10094000EF92FF920F931F93CF93DF93FB012081D0
:10095000213871F52381223259F5DC0112964C9130
:10096000248135814217130619F5EC010B851C858E
:10097000F12CE12C0115110589F0F8014481558114
:100980006281738180E80E9430028F3F980749F0AE
:10099000E80EF91ED8010D911C91ECCF81E08F87F4
:1009A000C701DF91CF911F910F91FF90EF900895B4
:1009B00090E080E0F6CFCF93DF93CDB7DEB76997B5
:1009C0000FB6F894DEBF0FBECDBFFC01DB018C91EA
:1009D0008F5F8C939E012D5F3F4F8DE0D9011D925B
:1009E0008A95E9F729E0298384E08A8391E09D8351
:1009F00083E08E832A8721E22B879C879D879F87B0
:100A000022E2288B27E02B8B25E02C8B8E8B20E499
:100A100030E0388F2F8B998F82818B8395858685E7
:100A2000998B8A8B838180688D8B49E150E0BE0170
:100A30006F5F7F4F80E00E94300269960FB6F89496
:100A4000DEBF0FBECDBFDF91CF910895CF93DF936F
:100A5000EC018A819B81DC01ED91FC910480F581A0
:100A6000E02D6A8509958A85813439F4EA81FB8114
:100A7000EA58FF4F8081846080831A861B861C861B
:100A80001D861E861F86188A80E0DF91CF9108950B
:100A900081E0693009F080E00895FC0182850895C5
:100AA0000F931F93CF93DF93FC018B01EA018081A9
:100AB0009181892B31F19281992349F128813981E2
:100AC000232BF9F0D8012D913C91D9014C918381D0
:100AD000682F691B770B80819181860F971FDC013E
:100AE0004C93828181508283888199810197998377
:100AF0008883D8018D919C91119701968D939C9339
:100B0000DACF80E0DF91CF911F910F91089583811B
:100B1000828381E0F7CFDF92EF92FF920F931F93D2
:100B2000CF93DF93EC0185E0E62EF12CFE01869F4A
:100B3000E00DF11D1124908596FF24C0192F177028
:100B400001E085E0D82E8FEF800F8F3008F001E0B4
:100B5000602F70E0062FD69EF001D79EF00D112475
:100B6000EC0FFD1F808586958695869587701817F2
:100B700001F16F5F7F4F603168F38D81811302C097
:100B800011501D8385E08E9DF0018F9DF00D112485
:100B9000EC0FFD1F108681E0818712862296D78395
:100BA000C683DF91CF911F910F91FF90EF90DF905F
:100BB0000895CE010E948B05C6CFFC0120812EBD79
:100BC0009B012150310941F051810DB407FEFDCF49
:100BD0004EB55EBD4193F5CF61507109860F971FE9
:100BE0000DB407FEFDCF2EB5FC0120830895FC0156
:100BF00021E0613499F49C01255B3F4F61E0AC0139
:100C00004E5F5F4F158666871786548743873596F4
:100C10002E173F07B9F7FC01158208953585631734
:100C200029F02F5F35962031C9F70895622F0C9473
:100C30008B05CF93DF93FC0167FD12C0283080F451
:100C4000442319F08581873059F0EF01A1E0B0E02D
:100C50008D85882349F111962596A031B105C1F7FC
:100C600080E018C085E08A9FE0018B9FD00D1124A1
:100C7000CE0FDF1F442389F081E4888785818F5F51
:100C8000858325E02A9FC0012B9F900D1124E80F3A
:100C9000F91F8085DF91CF91089581E08887F1CF9A
:100CA0002770687B622B0FC06623E1F26770660FC6
:100CB000660F660F4423A1F3606485818F5F85838F
:100CC0008770687F682B25E02A9FC0012B9F900DBD
:100CD0001124E80FF91F6087862FDCCFFC0121E08B
:100CE000611102C0069608953585631739F02F5FAC
:100CF00035962031C9F790E080E00895069635E0FA
:100D0000239F800D911D1124089581E008953F9245
:100D10004F925F926F927F928F929F92AF92BF920B
:100D2000CF92DF92EF92FF920F931F93CF93DF93B7
:100D300000D000D0CDB7DEB76C017A8369835C83C5
:100D40004B8384E0482E360182E1680E711C93E0EB
:100D5000392E5601A7E0AA0EB11C12E05524539477
:100D60004601B0E18B0E911C29813A812115310594
:100D700009F4CDC0F60180A18230F1F0A8F58823F6
:100D800009F457C0813091F7AE014F5F5F4FBE014C
:100D90006D5F7F4FC5010E945005882309F4B7C0DD
:100DA000D6011596ED91FC911697808191968C93C2
:100DB0009197818192968C93F6017682658230A21A
:100DC000D60192968C919297843011F493961C924E
:100DD000F60181A182508483258136813087278363
:100DE0008287818740A205C0833051F3843009F0A7
:100DF000BDCFD60192968C919297843019F18530AF
:100E000009F44BC0823009F075C0AE014F5F5F4FEF
:100E1000BE016D5F7F4FC5010E945005882309F414
:100E200076C0F601858984A3F6019682858210A298
:100E30009BCF148385819681908787831287118742
:100E400050A2A2CFAE014F5F5F4FBE016D5F7F4FDB
:100E5000C5010E945005882309F459C0D601559652
:100E60008C915597833001F756968C915697813027
:100E7000D9F698969C91989757968C91992351F012
:100E8000882391F2F60153A2928996A3938997A39E
:100E900085A3CACF823041F6F5CFAE014F5F5F4FD9
:100EA000BE016D5F7F4FC5010E945005882379F117
:100EB000D60193968C919397882309F4B5CF129617
:100EC0008D919C91009709F4AFCFDC01ED91FC91DD
:100ED0000190F081E02D7401D60195960C919597C3
:100EE00097962C91979796964C91969794966C918D
:100EF00009959ACFF60185858823F9F0813041F173
:100F0000D6011E968D919C91892B09F48DCF0F905F
:100F10000F900F900F90DF91CF911F910F91FF9045
:100F2000EF90DF90CF90BF90AF909F908F907F9089
:100F30006F905F904F903F90089591968C9191970C
:100F40008250990B1F969C938E931E971D965C92D0
:100F500029813A818B819C81782F692FF601468502
:100F600057854115510581F001962115310539F05C
:100F7000415051095787468721503109EDCF7B8376
:100F80006C831A821982BCCF9C838B833A8329831A
:100F90001586B6CF0895EF92FF92CF93DF93FC01B1
:100FA000E7018289823021F16787408B9B819370B2
:100FB0009330F1F49A8197FF1BC02E81308D321748
:100FC00008F4208F282F30E0D901AA0FBB1FA20FF1
:100FD000B31FAE0FBF1F9F7017969C9317979C81EE
:100FE00018969C93189794E019969C938F5F828B28
:100FF000DF91CF91FF90EF900895EF92FF920F93C2
:1010000002970E94CB070F91FF90EF900895FC018B
:101010008789089570E0660F771F860F971FFC0180
:1010200085859685089581E0623009F080E0089515
:1010300081E0633009F080E00895FC018681089525
:10104000CF93DF93EC018C819D81DC01ED91FC91CC
:101050000480F581E02D6E8109951F86188A81E054
:101060008A8B1E821B8A1C8A1D8A1E8A1F8A80E028
:10107000DF91CF9108952E9808952E9A089570E0EB
:10108000660F771F860F971FFC015687458781E003
:101090000895EF92FF920F931F93CF93DF937C01FC
:1010A000E8019881F7018581892780FF05C081E0EB
:1010B00090FF46C00E948C039881F70185818927A3
:1010C00081FF05C082E091FF3EC00E948C039881A1
:1010D000F7018581892782FF05C084E092FF36C031
:1010E0000E948C039881F7018581892783FF05C0C1
:1010F00088E093FF2EC00E948C039881F7018581C0
:10110000892784FF05C080E194FF26C00E948C03DC
:1011100099818A81911102C0882321F09093B001B6
:101120008093B1018B8181118093B2018881F70195
:101130008583DF91CF911F910F91FF90EF900895DC
:101140000E947E03B9CF0E947E03C1CF0E947E031E
:10115000C9CF0E947E03D1CF0E947E03D9CF0895CC
:1011600080E00895089580E0089508950F931F93F7
:10117000CF93DF93D82FC62F8A0180E591E00E949C
:1011800053010E943B08D260DEBDF8018C2F8823FA
:1011900039F00DB407FEFDCF91919EBD8150F7CF80
:1011A000C00FD12FD11D0DB407FEFDCF0E943D0809
:1011B000CE01DF91CF911F910F9108950F931F934F
:1011C000CF93DF9300D0CDB7DEB7182F062F80E581
:1011D00091E00E9453010E943B08126019830A8328
:1011E00062E070E0CE0101960E94DD050E943D089C
:1011F0000F900F90DF91CF911F910F9108959F92C3
:10120000AF92BF92CF92DF92EF92FF920F931F9314
:10121000CF93DF936C01C42FD22F99249394E62EA1
:10122000F12CEE0CFF1CE80EF91E86E5E80EF11C11
:10123000A42EB12CABE2AA0EB11CAA0CBB1CAC0CA8
:10124000BD1CF70180819181DC01ED91FC91028050
:10125000F381E02D202F4D2F6C2F0995182F803E04
:10126000C9F5C1112BC061E088EE0E94DE0866E678
:1012700070E080E090E00E94C401F70180819181DC
:10128000DC01ED91FC910190F081E02D202F4D2F9C
:101290006C2F0995182F8D30D1F58FEF890D833084
:1012A000F8F0C11137C061E088EE0E94DE0866E602
:1012B00070E080E090E00E94C4011CC0F5018081D4
:1012C0009181DC01ED91FC910284F385E02D6D2F7D
:1012D0000995D3CF8D3061F48FEF890D833050F4B1
:1012E00064E670E080E090E00E94C4019394A9CF8E
:1012F000882319F2812FDF91CF911F910F91FF90D9
:10130000EF90DF90CF90BF90AF909F90089588238B
:1013100089F3C7CF8C2F90E08B96880F991F8C0D87
:101320009D1DFC0180819181DC01ED91FC91028485
:10133000F385E02D6D2F0995DDCF8EBD00000DB436
:1013400007FEFDCF8EB50895CF93C82F80E591E0BD
:101350000E9453010E943B088C2F0E949D0980E04F
:101360000E949D09C82F0E943D088C2FCF9108959F
:101370008F929F92AF92BF92CF92DF92EF92FF92A5
:101380000F931F93CF93DF93882E962E5A010E94BE
:10139000F6016B017C0128E8C20E23E1D21EE11C9C
:1013A000F11C10E000E0D0E0C0E098280E94F601B7
:1013B0006C197D098E099F0997FF1EC0692D80EF6A
:1013C0000E94DE080E94F6016C197D098E099F09B2
:1013D00097FF09C088EC0E94A40987FFF3CF60E85B
:1013E00088EC0E94DE0888EF0E94A409C82FCF7005
:1013F000C43081F0CE30B9F08C2FDF91CF911F91A6
:101400000F91FF90EF90DF90CF90BF90AF909F90A3
:101410008F9008950F5F1F4FA114B10439F20A1580
:101420001B0521F6E9CFDF5FD33009F0BFCFE4CF52
:10143000AF92BF92CF92DF92EF92FF920F931F93E2
:10144000CF93DF93EC01B62EA42E69010E946E06A5
:101450007C0186EDE114F10409F447C0D701ED9158
:10146000FC91119787ED309709F43FC013969C913A
:1014700080E0981731F02081A21629F033968F5F13
:10148000F8CFF0E0E0E0D601ED93FC938BED3097E0
:1014900061F1228126952695203108F02FE081E028
:1014A00090E0A0E0B0E004C0880F991FAA1FBB1F06
:1014B0002A95D2F70197F801918380836B2D80EEF6
:1014C0000E94DE0888ED0E94A409D70114969C9121
:1014D000682F697F992329F0CA58DF4F68816260BD
:1014E000682B88ED0E94DE0880E0DF91CF911F918C
:1014F0000F91FF90EF90DF90CF90BF90AF90089545
:1015000088EF0E94A409807C8034B1F018F488230D
:1015100001F10895803819F0803CC9F0089588EDF4
:101520000E94A40981FD0DC069EC88ED0E94DE08CF
:1015300082E08093BE01089588ED0E94A40981FD98
:10154000F3CF6BEC88ED0E94DE0883E0F2CF81E000
:10155000F0CF61ED88ED0E94DE081092BE01089583
:101560002F923F924F925F926F927F928F929F92B3
:10157000AF92BF92CF92DF92EF92FF920F931F93A1
:10158000CF93DF937B013A016901F901A080B1801B
:10159000FB013180F90111821082FB01828160E13F
:1015A00081FD60E288EE0E94DE082A2CA301F7018B
:1015B000608180E00E94B809582EF6E08F1310C0B9
:1015C00088EF0E94A409F70192819D7F84FF9260B9
:1015D000928360E191FD60E288EE0E94DE08E6CF32
:1015E000811150C088EC0E94A40982FF5FC080E393
:1015F0000E94A409482E8A151B0411F008F0422C01
:10160000F60180819181E501C81BD90BD7FF02C08B
:10161000D0E0C0E0842C912C8C169D060CF4E401E3
:1016200080E591E00E9453010E943B0888E00E94FF
:101630009D09AE0170E060E0C8010E94281C20975F
:1016400021F0BE01C8010E94DD050C0F1D1F0E9484
:101650003D0864E088EC0E94DE08F60180819181FB
:10166000880E991E91828082431420F08A149B0474
:1016700008F49CCF88EF0E94A409F701928184FBB3
:1016800091F99283852DDF91CF911F910F91FF905A
:10169000EF90DF90CF90BF90AF909F908F907F9012
:1016A0006F905F904F903F902F90089580EF582E4D
:1016B000E9CFAF92BF92CF92DF92EF92FF920F935A
:1016C0001F93CF93DF9300D000D0CDB7DEB77C015E
:1016D000690158011C821B821A8219828E010F5FD8
:1016E0001F4F9E012D5F3F4F0E94180A811109C0B4
:1016F00049815A816B817C8185019601C7010E94D5
:10170000B00A0F900F900F900F90DF91CF911F9123
:101710000F91FF90EF90DF90CF90BF90AF90089522
:101720002F923F924F925F926F927F928F929F92F1
:10173000AF92BF92CF92DF92EF92FF920F931F93DF
:10174000CF93DF93CDB7DEB765970FB6F894DEBFC2
:101750000FBECDBF3C01342E222E402EED8AEAA4CE
:10176000FBA4188A1F861E861D868E01035F1F4FED
:101770009E01215F3F4F40E00E94180A582E8111C0
:1017800039C139822A824B822D892C83DE82CD8217
:10179000B886AF82AE014F5F5F4F68E080E20E9483
:1017A000B6084D855E8560E080E10E94B809811130
:1017B0003FC1E114F10409F453C00F851889D80121
:1017C00012968C91129737FE51C0826012968C93BC
:1017D000650144244394C114D10409F42EC19C86AC
:1017E0008B864D855E856F85788987019E01255F93
:1017F0003F4FC3010E94B00A582EB6E08B130EC0B3
:1018000088EF0E94A409EF85F88985FB882780F975
:101810008425928180FB91F99283DDCF8111EAC00A
:10182000ECA5FDA53097A1F06B857C850190F0813A
:10183000E02D0190F081E02DC5018C199D099A875A
:1018400089879E01275F3F4FA7018CA59DA509951C
:101850008B859C85C81AD90A8815990508F0BBCFD5
:101860004D855E8537FEE0C080EADFC0816012965C
:101870008C93129711966C908FEF860D803408F040
:10188000D9C02D843E840E94F6019B01AC012857EB
:101890003C4E4F4F5F4F298B3A8B4B8B5C8BD80163
:1018A00012968C9160E880FF60E488EE0E94DE086A
:1018B000512C712C8114910409F48BC053018614AE
:1018C000970408F45401AD8AA7016A2D80E10E94B3
:1018D000B6086A2D88E30E94DE08F8016081606224
:1018E00080EF0E94DE0888EC0E94A40987FFFBCFEE
:1018F00060E888EC0E94DE0888EF0E94A4098F70DF
:10190000582E412CD12CC12C552021F10E94F601DA
:1019100029893A894B895C89621B730B840B950B6F
:1019200097FF18C036E0531609F43FC04EE0541636
:10193000B1F054E0551209C08FEFC81AD80A21142B
:10194000310489F02C143D0471F460E088E30E94B6
:10195000DE0841C08A189B08EA0CFB1CABCF4394FD
:1019600093E0491691F360E088E30E94DE08D70116
:101970006C9180E10E94DE086D8988E30E94DE0898
:10198000F8016081606280EF0E94DE0888EC0E94AE
:10199000A40987FFFBCF60E888EC0E94DE0888EF8F
:1019A0000E94A4098F70582EAFCF88EF0E94A4091F
:1019B00085FB882780F9A1E08A27F801928180FBC6
:1019C00090F9928360E890FF60E488EE0E94DE0860
:1019D000CACF5110BACF88EF0E94A409D80112963D
:1019E0009C91129785FB90F912969C934D855E858C
:1019F0005520D1F0852D65960FB6F894DEBF0FBE49
:101A0000CDBFDF91CF911F910F91FF90EF90DF90AD
:101A1000CF90BF90AF909F908F907F906F905F908E
:101A20004F903F902F90089580E860E00E94B809A1
:101A3000582EE0CF8AED582EDDCF4D855E8555209E
:101A400009F412CFD7CF8F929F92AF92BF92CF92CD
:101A5000DF92EF920F931F931F921F921F930F938A
:101A60004A015A01D12CC12C32E0E32E022F26E08C
:101A700040E80E94900B0F900F900F900F901F91D5
:101A80000F91EF90DF90CF90BF90AF909F908F908D
:101A900008958F929F92AF92BF92CF92DF92EF9272
:101AA0000F931F921F923F932F934A015A01D12CFB
:101AB000C12CEE24E39400E026E040E80E94900B65
:101AC0000F900F900F900F900F91EF90DF90CF90AD
:101AD000BF90AF909F908F9008958F929F92AF92FA
:101AE000BF92CF92DF92EF920F93CF931F921F92EC
:101AF0001F921F92912C812CB12CA12CD12CC12C86
:101B0000E12C062F25E040E060E00E94900BC82FFA
:101B10006CE271E080E090E00E94C4010F900F90B1
:101B20000F900F908C2FCF910F91EF90DF90CF906F
:101B3000BF90AF909F908F9008952F923F924F92B9
:101B40005F926F927F928F929F92AF92BF92CF924D
:101B5000DF92EF92FF920F931F93CF93DF93CDB756
:101B6000DEB767970FB6F894DEBF0FBECDBF1B8AF6
:101B700038E03C8B3CE33D8B8A3F3FEF9307D9F441
:101B800006ED802F67960FB6F894DEBF0FBECDBF6F
:101B9000DF91CF911F910F91FF90EF90DF90CF9049
:101BA000BF90AF909F908F907F906F905F904F907D
:101BB0003F902F900895122F342E462E7C01DC0189
:101BC0001696CD90DC901797CE01439617969C936E
:101BD0008E9316971A962C939E012F5F3F4F42E1EA
:101BE00050E060E0C7010E94490D582EF701D782EE
:101BF000C682082F8111C5CF89849A846B847C8426
:101C0000FD81FE8B3E813F8B670186E5C80ED11CAE
:101C10005601212CD5018D919C910097F1F52394CB
:101C2000B2E0AB0EB11CE0E12E12F4CFF6018081E0
:101C30009181009709F070C05394F2E0CF0ED11C4F
:101C400030E15312F3CFF7018681978107ED892B9D
:101C500009F497CF1287232D40E0642DC7010E941D
:101C60001906D82E04ED882309F48BCF682FC701FD
:101C70000E946E06009709F483CFDC0114961C9332
:101C80006D2DC7010E946D0D082F882309F479CFAF
:101C90006D2DC7010E94F70574CFDC01ED91FC9119
:101CA0000084F185E02D09958111B9CFF50180817E
:101CB0009181DC01ED91FC910088F189E02D6F8923
:101CC0000995882309F4ABCFF50180819181DC016E
:101CD000ED91FC910484F585E02DA301B4010995F3
:101CE000882361F0012F232D442D622DC7010E940E
:101CF000FF08082F813D09F492CF43CFF501808181
:101D00009181DC01ED91FC910684F785E02D6E89CF
:101D100009958111E7CF83CFDC01ED91FC9100841F
:101D2000F185E02D0995811187CFF60180819181A0
:101D3000DC01ED91FC910088F189E02D6F89099516
:101D400081110DC0012F232D442D652DC7010E9447
:101D5000FF08082F877F813D09F013CF6DCFF60173
:101D600080819181DC01ED91FC910484F585E02D69
:101D7000A301B401099581115FCFF60180819181A2
:101D8000DC01ED91FC910684F785E02D6E890995C3
:101D90008823C1F251CF8F929F92AF92BF92CF9280
:101DA000DF92EF920F93C42ED12C1F921F921F929D
:101DB0001F92912C812CB12CA12CE12C062F21E01B
:101DC00043E2FC016285828193810E94900B0F9017
:101DD0000F900F900F900F91EF90DF90CF90BF90EA
:101DE000AF909F908F9008958F929F92AF92BF92E5
:101DF000CF92DF92EF920F93C62ED12C1F921F929B
:101E00005F934F9324E0822E912C34E0A32EB12CCB
:101E1000E12C00E020E043EAFC01628582819381AD
:101E20000E94900B0F900F900F900F900F91EF90DA
:101E3000DF90CF90BF90AF909F908F9008958F923A
:101E40009F92AF92BF92CF92DF92EF920F93C42EE8
:101E5000D12C1F921F921F921F92912C812CB12C7A
:101E6000A12CE12C062F23E043E2FC016285828154
:101E700093810E94900B0F900F900F900F900F91F5
:101E8000EF90DF90CF90BF90AF909F908F9008958C
:101E9000CF92DF92EF92FF921F93CF93DF93EC01EB
:101EA000162F7A01FA0180819181A281B38181305C
:101EB000F3E09F07F1E0AF07B105C9F170F48115B8
:101EC000E1E09E07AE07B10509F450C081309140B2
:101ED000A140B10561F180E041C0833021E092076B
:101EE00020E1A207B10529F083309340A041B1055C
:101EF00091F7412F64E1CE010E94CB0E412F60E1AA
:101F0000CE010E94CB0E64E170E080E090E00E9480
:101F1000C4016A85F7012181269521706770412FE0
:101F20008A819B810E949D0D10929601D4CF809151
:101F300096018111D0CF412F61E1CE010E94CB0EDD
:101F4000412F60E1CE010E94CB0E412F64E0CE0113
:101F50000E941F0F81E08093960181EBDF91CF916A
:101F60001F91FF90EF90DF90CF900895462F61E191
:101F7000CE010E94CB0E412F60E1CE010E94CB0E1C
:101F8000109296018A8587701770880F880F880FC6
:101F9000182B09F4A0CFEA80FB806701F6E5CF0E8D
:101FA000D11CD0E0C0E0D6018D919D916D010097CC
:101FB000C1F0DC01ED91FC910084F185E02D0995E3
:101FC00018130FC0AB96CC0FDD1FCE0DDF1D88811F
:101FD0009981DC01ED91FC910480F581E02D09955A
:101FE0007ACF2196C031D105F1F675CFCF92DF922D
:101FF000EF92FF920F931F93CF93DF93CDB7DEB78E
:102000002E970FB6F894DEBF0FBECDBFFC0120891E
:10201000211111C010E0812F2E960FB6F894DEBF6B
:102020000FBECDBFDF91CF911F910F91FF90EF9029
:10203000DF90CF9008957C010E94F601F70104859E
:10204000158526853785601B710B820B930B97FDD9
:10205000E1CF81E090E09E878D878E010F5F1F4F5B
:102060009E01235F3F4F41E06285828193810E9400
:10207000590B182F811121C082E0D82E01E08981EF
:102080008D2139F119861A861B861C86AE01475FA1
:102090005F4F602FC7010E94F40EC82E811119C036
:1020A000AE01475F5F4F602FC7010E94480F813B21
:1020B00019F0882371F0C82E1C2D0E94F6016C596E
:1020C0007F4F8F4F9F4FF70164877587868797876C
:1020D000A2CFDD0C0F5F083091F601E0F701838598
:1020E000801758F319861A861B861C86AE01475F37
:1020F0005F4F602FC7010E94F40ED82E811117C0C8
:1021000089859A85877091708130914081F48B85A3
:102110009C8581609C878B87AE01475F5F4F602FF6
:10212000C7010E94480F813B29F0811102C00F5F57
:10213000D5CFD82E1D2DC1CFCF92DF92FF920F9316
:102140001F93CF93DF9300D000D0CDB7DEB78C01C3
:10215000F62E19821A821B821C82462F61E10E9490
:10216000CB0E4F2D60E1C8010E94CB0E4F2D64E0D5
:10217000C8010E941F0F83E0C82ED12CAE014F5F13
:102180005F4F6F2DC8010E94F40E811114C0898128
:102190009A81AB81BC819D7F83309140A041B10584
:1021A00051F064E670E080E090E00E94C40181E0BC
:1021B000C81AD10819F74F2D64E1C8010E94CB0E4F
:1021C0004F2D60E1C8010E94CB0E64E170E080E019
:1021D00090E00E94C4010F900F900F900F90DF913C
:1021E000CF911F910F91FF90DF90CF9008952F9284
:1021F0003F924F925F926F927F928F929F92AF9297
:10220000BF92CF92DF92EF92FF920F931F93CF93E3
:10221000DF93CDB7DEB7E8970FB6F894DEBF0FBEF9
:10222000CDBFDC011A963C91311131C1522E842E62
:10223000962E3C01FC01E280F380D701ED91FC91E8
:102240000190F081E02D60E0C70109958C010097B5
:10225000E1F4E6ED3E2E832DE8960FB6F894DEBF4E
:102260000FBECDBFDF91CF911F910F91FF90EF90E7
:10227000DF90CF90BF90AF909F908F907F906F90A6
:102280005F904F903F902F900895FC01C080D180C7
:1022900037ED332EC114D104F1F25301F4E0AF0E47
:1022A000B11CDC011196BC92AE9214965C92FE01B8
:1022B00031962F019F0148E050E060E0D301129673
:1022C0008D919C910E94490D382EF8011482811144
:1022D000E1C08D8121ED322E893009F0BCCF2980FB
:1022E000D701ED91FC910280F381E02D282D41E092
:1022F000692DC7010995F301828794ED392E882352
:1023000009F4A9CF98859583682F828193810E94D3
:102310006D0D382ED801CD92DC92882371F0D70153
:10232000ED91FC910480F581E02DD3011A966C911A
:10233000C7010995F30112868ECF211006C0A114A2
:10234000B10499F488ED382E86CF422D413208F041
:1023500040E250E09201F3016285828193810E9404
:10236000490D382E811177CFEACFD30112962D90E7
:102370003C9013971A961C91612FC1010E946E0622
:10238000FC01892B09F465CF1283B182A08282E01F
:1023900083831F921F925F924F9258E0852E912C5B
:1023A00068E0A62EB12CD12CC12C79E2E72E00E0FA
:1023B00026E040EA612FC1010E94900B382E0F9059
:1023C0000F900F900F90811146CF8B81F30183877F
:1023D000820120E048E050E06285828193810E9482
:1023E000230D382E811137CF4B815C8120E0D30142
:1023F0001A966C911A9712968D919C910E94230DBA
:10240000382E811128CF498150E08E010F5D1F4F7A
:1024100020E0F3016285828193810E94230D382E92
:10242000811119CF1F921F921F921F92912C812C04
:10243000B12CA12CE12C0E8129E040E0D3011A96A9
:102440006C911A9712968D919C910E94900B382E48
:102450000F900F900F900F908111FDCE11E0F301BE
:102460008385811738F0412F68E0C3010E941F0F58
:102470001F5FF5CFD3010280F381E02DEA58FF4FB3
:1024800080818460808381E050968C93E4CE49ED16
:10249000342EE1CED182C082DECE2F923F924F9277
:1024A0005F926F927F928F929F92AF92BF92CF92E4
:1024B000DF92EF92FF920F931F93CF93DF93CDB7ED
:1024C000DEB7C358D1090FB6F894DEBF0FBECDBF3B
:1024D000DC0116963C9119ED311115C0022FC42E66
:1024E000D62E3C01FC0124803580108ED101ED9167
:1024F000FC910190F081E02D60E0C10109952C0173
:102500000097E1F416ED812FCD57DF4F0FB6F89409
:10251000DEBF0FBECDBFDF91CF911F910F91FF9016
:10252000EF90DF90CF90BF90AF909F908F907F9073
:102530006F905F904F903F902F900895FC01E08046
:10254000F18017EDE114F104F1F29301295F3F4F9F
:10255000EE963FAF2EAFEE973183208304839E012A
:1025600026593F4F48E050E060E0D30114968D912A
:102570009C910E94490D182F81117EC1AB961FAD11
:10258000AB97F201F182E082D101ED91FC910280E2
:10259000F381E02D2C2D40E06D2DC1010995F30153
:1025A0008683882309F466C1E2969FADE2979087FF
:1025B000682F848195810E946D0DF82ED101ED91D7
:1025C000FC91882379F0D20114961C920480F58145
:1025D000E02DD30116966C91C1010995F301168285
:1025E0001F2D91CFD30116966C91D20114961C9297
:1025F0000190F081E02DC1010995009709F482CF87
:10260000FC010483111183C0EC96FFADEC97CF570A
:10261000DF4FF883C158D0402E0121E4420E511CF7
:10262000C3010296CE57DF4F99838883C258D040AA
:10263000120190E1290E311CCF57DF4FB881C158EC
:10264000D040FB1609F481C027E131E0F20131836B
:102650002083CE57DF4F88819981C258D040938321
:10266000828314821186128615861786168610A21A
:1026700011A212A210A636822582308627823486C5
:102680002386D30114960D90BC91A02DC258DF4F24
:10269000B983A883CE57D040F301F681C058DF4FED
:1026A000F883C058D0408E010F5F1F4F2F2D49E097
:1026B00050E06F2FCD010E94230D811121C0AB800E
:1026C000BC805F924F921F930F9330E4832E912C26
:1026D000D12CC12C42E0E42E0F2D26E040E8C0585A
:1026E000DF4F6881C058D040C258DF4F8881998140
:1026F000CE57D0400E94900B0F900F900F900F90EC
:10270000D30152968C91823001F1F39495CF13311D
:1027100008F012E1412F50E09E0126593F4FD301AE
:1027200016966C91169714968D919C910E94490D66
:10273000182F882309F468CFD301ED91FC91048010
:10274000F581E02DC3010995DECEF3011289123027
:1027500009F08EC0848195810681EE962EAD3FAD45
:10276000EE97232B71F0602F0E946E06FC01892BDF
:1027700041F00283EE968EAD9FADEE9791838083FC
:10278000138368EE73E080E090E00E94C4011F9222
:102790001F921F921F92912C812CB12CA12CD12C15
:1027A000C12CE12CD3011F960C911F9729E040E02A
:1027B00016966C91169714968D919C910E94900B91
:1027C000182F0F900F900F900F908111B5CF68EEDA
:1027D00073E080E090E00E94C4011F921F921F925C
:1027E0001F92F301018D2BE041E266818481958186
:1027F0000E94900B182F0F900F900F900F90811147
:102800009BCF1F921F921F921F9200E02AE041E28D
:10281000D30116966C91169714968D919C910E94F7
:10282000900BFE01EF5BFF4F8DE191E09183808380
:10283000FF93EF93CE0101969F938F9380E4882EB0
:10284000912C90E8A92EB12C22E2E22E26E041E85C
:10285000F3016681848195810E94900B81E0D30110
:1028600057968C930FB6F894DEBF0FBECDBF4BCEFC
:1028700011ED62CF14ED47CEF201F182E0825CCF20
:102880006F927F928F929F92AF92BF92CF92DF9280
:10289000EF92FF920F931F93CF93DF9300D0CDB7AA
:1028A000DEB77C01CDB6DEB6DC0157968C91811186
:1028B00018C0912C892D0FB6F894DEBE0FBECDBE88
:1028C0000F900F90DF91CF911F910F91FF90EF909C
:1028D000DF90CF90BF90AF909F908F907F906F9040
:1028E00008950E94F601F70183889488A588B68828
:1028F000681979098A099B0997FDDBCFADB6BEB689
:102900004285838590E08134910508F045C09A8323
:10291000898389819A812DB73EB7281B390B0FB661
:10292000F8943EBF0FBE2DBF8DB79EB701968C01A8
:102930009E012F5F3F4FD70116966C911697149604
:102940008D919C910E94590B982E811113C0298161
:102950003A812330310570F0F7018585968500971F
:1029600049F0DC01ED91FC910190F081E02D40E017
:10297000B70109950FB6F894BEBE0FBEADBE0E945A
:10298000F601F701208D620F711D811D911D638B72
:10299000748B858B968B8ECF80E490E0B8CF1F929E
:1029A0000F920FB60F9211242F933F938F939F9303
:1029B000AF93BF938091B4019091B501A091B601FE
:1029C000B091B7013091B30123E0230F2D3758F5B3
:1029D0000196A11DB11D2093B3018093B401909382
:1029E000B501A093B601B093B7018091B801909161
:1029F000B901A091BA01B091BB010196A11DB11D11
:102A00008093B8019093B901A093BA01B093BB0130
:102A1000BF91AF919F918F913F912F910F900FBEDA
:102A20000F901F90189526E8230F0296A11DB11D47
:102A3000D2CF1F920F920FB60F9211248F939F93B4
:102A40008091E1009091E100937F9093E10083FFFA
:102A50000FC01092E90091E09093EB001092EC000F
:102A600092E39093ED001092BD0198E09093F000F6
:102A700082FF22C093E09093E9009091F2009923A5
:102A800019F09AE39093E8009091A801992341F0FE
:102A90009091A80191509093A801911101C05D9A65
:102AA0009091BC01992341F09091BC019150909379
:102AB000BC01911101C0289A84FF18C08091E200E6
:102AC0008E7E81608093E2008091E1008F7E809312
:102AD000E1008091A9018E7E80618093A9019F9180
:102AE0008F910F900FBE0F901F90189580FFF7CF1A
:102AF0008091E2008E7E80618093E2008091E1000F
:102B00008E7E8093E1008091A9018E7E8160E5CF69
:102B10001F920F920FB60F921124CF92DF92EF9275
:102B2000FF920F931F932F933F934F935F936F9356
:102B30007F938F939F93AF93BF93EF93FF93CF9325
:102B4000DF93CDB7DEB76C97DEBFCDBF1092E90043
:102B50008091E80083FF25C068E0CE0145960E9481
:102B6000010382EF8093E8008D8987FF39C090913F
:102B7000E80090FFFCCF982F907609F034C19E8931
:102B80004F89588D2F89F88C911131C0803861F5AB
:102B90008091AA018093F1001092F1008EEF809352
:102BA000E8006C960FB6F894DEBF0FBECDBFDF9184
:102BB000CF91FF91EF91BF91AF919F918F917F91B5
:102BC0006F915F914F913F912F911F910F91FF90C6
:102BD000EF90DF90CF900F900FBE0F901F90189541
:102BE0009EEF9093E800C7CF1092F100D5CF9130BF
:102BF00059F48111D3CF4130510581F68091AA015A
:102C00008D7F8093AA01CACF933049F48111C6CF3A
:102C10004130510519F68091AA018260F2CF9530BA
:102C200041F48091E80080FFFCCF20682093E3000E
:102C3000B5CF963009F0A9C00B8D1C8D22E0109203
:102C4000E9001092A6011092A501F2122EC0109276
:102C5000A4011092A3010E9499031F8299E0998315
:102C6000FA8291E09E8390EA98879AEF9987209163
:102C7000A5013091A601275F3F4F3C832B838D83B5
:102C80001092E9001092A6011092A5011093A401E0
:102C90000093A30149E050E0BE016F5F7F4F80E0E9
:102CA0000E9430020E94990379CF1093A4010093EF
:102CB000A3010E940E03DC0112960D911C910115D7
:102CC000110509F451C1D801ED91FC910480F58101
:102CD000E02DBE016B5E7F4FC8010995009709F09A
:102CE0003EC1F80100851185EACFF3E0FF120EC066
:102CF0008F89882309F440C0823061F440E863E1A1
:102D00008CE091E00E94BA17811148CF81E2809354
:102D1000EB0047CF813029F440E867E084E091E0A0
:102D2000F1CF833099F70E940E03DC011296ED90EB
:102D3000FC908E010F5F1F4F6801E114F10479F0E0
:102D4000D701ED91FC910680F781E02DB801C70114
:102D50000995080F111DF701E084F184EECFD80129
:102D60001C92F60101900020E9F73197BF016C1920
:102D70007D0940E0C601C6CF6EEE70E0FB014491D4
:102D800050E080E80E94300209CF973009F4BECFAE
:102D9000983021F481E08093F10000CF993009F060
:102DA000FDCE837009F0B2CFEDE0F1E081E031E0DB
:102DB00096E32191222371F08093E9003093EB0098
:102DC000DF0111972C912093EC009093ED008F5F21
:102DD000873079F78EE78093EA001092EA008F89B6
:102DE0008093BD01DBCE8B8D9C8D1092E9001092FB
:102DF000A6011092A5019093A4018093A301898D4F
:102E0000811192C08E899D89913A49F4813209F0ED
:102E10007DCF47E050E064E071E080E0B3CF9132D5
:102E200009F074CF833269F48F89988DB0E0A0E007
:102E30008093000190930101A0930201B0930301DC
:102E4000ADCE803269F48091E80082FFFCCF67E06C
:102E500084E091E00E9401038BEF8093E8009ECE16
:102E6000823209F09BCE8F8980930B01EEEFFFE752
:102E7000859194918B3F9C4D51F1E0E0F8E0809179
:102E8000040190910501A0910601B0910701803BDA
:102E90009440A105B105F1F480910B0180FD1AC0A9
:102EA000EE3F8AE0F80789F587E797E7918380830B
:102EB000809160008093A70188E19BE00FB6F894B1
:102EC000A895809360000FBE9093600067CEEEEFF0
:102ED000FAE0D5CF808191818737974709F05ECEA0
:102EE000A895809160008861809360008091A7011F
:102EF00080936000EE3F2AE0F20789F08091FE0A9D
:102F00009091FF0A9183808349CE80819181873798
:102F1000980751F29093FF0A8093FE0AC5CF109252
:102F2000FF0A1092FE0A3ACE0E940E03DC011296AE
:102F30000D911C910115110509F4E8CED801ED9110
:102F4000FC910190F081E02DBE016B5E7F4FC801C6
:102F50000995811123CEF80100851185EBCF181654
:102F600019060CF41BCED2CEF1E0FF12BECE62EFFA
:102F700070E004CFEF92FF920F931F93CF93DF93F4
:102F8000F82E192FE62E042F81E0860F880F0E945D
:102F9000020283E00E940202CF2DD12FEC0EFD2E03
:102FA000F11CCE15DF05B9F007FF13C0FE018491B7
:102FB0000E940202182F80E00E94020281232196C3
:102FC0008111EFCFDF91CF911F910F91FF90EF9083
:102FD00008958881EDCF81E0F5CFCF931092C201A3
:102FE0001092C10188EE93E0A0E0B0E08093C301AD
:102FF0009093C401A093C501B093C60183E291E010
:103000009093C0018093BF018FEF9FEF9093CC010D
:103010008093CB0180912E02811113C0109229025E
:103020001092280289E991E090932B0280932A0262
:103030008BE290E090932D0280932C0281E08093AC
:103040002E028091200281112AC0C1E0C093130298
:10305000C093140289E192E09093160280931502C6
:10306000109218021092170285E391E090931002DB
:1030700080930F0210921B0210921A0210921D02EE
:1030800010921C02C0931E02C0931F0281EC809319
:1030900019020E940E030E940D01C0932002E091CC
:1030A0001A02F0911B02309709F0D1C088E292E039
:1030B00090931B0280931A0280911C0290911D0232
:1030C00020912C0230912D02820F931F90931D02AC
:1030D00080931C028BE791E090936D0280936C02C9
:1030E0001092740281E080937502109276028EE64F
:1030F00092E0909373028093720210926E0288E0C5
:1031000080936F028CE38093700210927102ECE660
:10311000F2E091E02EE632E0158696871786348736
:103120002387359682E0E73BF807B1F71092E20279
:1031300081E18093370225E631E030935C022093F1
:103140005B022CE632E030935E0220935D02109227
:103150006B0210925F0288E0809360022CE3209360
:103160006102909362028093630284E08093640220
:103170001092650210926602109267021092680225
:103180001092690210926A02A2ECB2E0FD0190E096
:1031900080E021913191232B09F062C0880F991FA3
:1031A000FC01EE53FD4F8BE592E0918380838CE62A
:1031B00092E0909346028093450281E491E09093DF
:1031C0004202809341028FE591E090934402809304
:1031D000430210925402109255021092560210921D
:1031E00057021092580210925A0281E080935302C3
:1031F000109252021092480288E0809349028CE3B8
:1032000080934A0210924B0210924C0284E0809309
:103210004D0210924E0210924F021092500290E016
:1032200080E02D913D91232B09F5880F991FFC011A
:10323000EE53FD4F81E492E09183808385E891E035
:103240009093390280933802CF910895FC018081D8
:1032500091810097D9F788E292E0918380832CCF07
:1032600001968031910509F094CFA1CF019680316C
:103270009105B9F6E3CF789484B5826084BD84B5B6
:10328000816084BD85B5826085BD85B5816085BD61
:1032900080916E00816080936E0010928100809119
:1032A00081008260809381008091810081608093A1
:1032B00081008091800081608093800080919100E6
:1032C0008260809391008091910081608093910051
:1032D000809190008160809390008091C100846013
:1032E0008093C1008091C10082608093C100809171
:1032F000C10081608093C1008091C3008160809390
:10330000C3008091C00082608093C0008091C200A1
:1033100081608093C20080917A00846080937A00FB
:1033200080917A00826080937A0080917A00816037
:1033300080937A0080917A00806880937A0010925E
:10334000BD011092AA011092A9018091D70081605D
:103350008093D70080EA8093D80089B5806189BDC9
:1033600089B5826089BD09B400FEFDCF61E070E0DF
:1033700080E090E00E94C4018091D8008F7C806141
:103380008093D8008091E000807F8093E00080915E
:10339000E1008E7E8093E1008DE08093E200559AFB
:1033A000209A8FEF9FEF9093CC018093CB0181E027
:1033B00090E0A0E0B0E08093C3019093C401A0939B
:1033C000C501B093C601269A0E943D08CFB7F89474
:1033D0008091AB0181115AC04CE651E0FA01949101
:1033E0006BE871E0FB013491E92FF0E0EE0FFF1F75
:1033F000E35BFE4FA591B4918C91382309F037C05F
:10340000E1E3F1E09491FB012491FA018491882396
:1034100009F42DC09923E9F091509F30D0F4E92FA1
:10342000F0E0EB5EF54E0C94221C871A8B1A241ADE
:103430007F1A831A291A291A291A8E1A941A981A85
:103440009C1AA21A291AA61A909180009F7790932D
:103450008000E82FF0E0EE0FFF1FE15CFE4FA5912A
:10346000B4918FB7F8949C91292B2C938FBF81E155
:103470000E9456018CB580618CBD8CB580648CBD7A
:103480008FE00E94560180E10E9456018091AB01BD
:103490008F5F8093AB01CFBF209A289A259868E16F
:1034A00088E80E94DE0860E288E70E94DE0860E0AB
:1034B00088E70E94DE08D0E0C0E088E60E94A40908
:1034C000219680FF49C061EC88ED0E94DE0860E62D
:1034D00080ED0E94DE0864E088EE0E94DE0888EE3F
:1034E0000E94A40982FFFBCF0E94800A60E288EC60
:1034F0000E94DE0861E080E80E94DE0831C0909101
:1035000080009F7DA4CF90918000977FA0CF94B53D
:103510009F7794BD9ECF94B59F7DFBCF90919000F7
:103520009F779093900095CF909190009F7DF9CFD9
:1035300090919000977FF5CF9091C0009F779093E6
:10354000C00087CF9091C0009F7DF9CF9091C200BD
:10355000977F9093C2007DCFCF3FDC0709F0ADCFBE
:1035600088E392E090934F0280934E0210923602CD
:1035700040E060E080E00E94220340E0C42E40E092
:10358000D42E50E2A52E63E1962E71E1872E77248A
:103590007394E0E56E2EF0E95F2E80E8282E91E529
:1035A000392E20E4422E32E1B32E1092B001109257
:1035B000B1011092B20183B1C82FC07285FD0CC059
:1035C00088EC0E94A40985FF03C00E94800AC0E223
:1035D0006C2F88EC0E94DE088091BE01813041F0A2
:1035E00050F0823009F4A8C0833069F0C0E021C0F7
:1035F00090923702FBCF80913702807F8031B1F308
:1036000080923702F3CFC1E080913702807F803112
:1036100081F40E94F60168537F4F8F4F9F4F609354
:10362000AC017093AD018093AE019093AF01A09275
:10363000370202EC12E07801D7018D919D917D0156
:10364000009739F0DC01ED91FC910680F781E02DC7
:103650000995B2EEEB16B2E0FB0671F780913702E6
:10366000803409F4A1C008F069C0803209F485C033
:10367000803309F492C08131A9F41092E202F8017A
:10368000819191918F01009739F0DC01ED91FC91CE
:103690000480F581E02D0995B2E0023E1B0779F721
:1036A000B09237028FEB91E00E9448041816190679
:1036B000A4F58FEB91E00E9406048D3409F0A9C0B7
:1036C000C0EBD1E00E94F6016093C7017093C8017E
:1036D0008093C9019093CA018FEB91E00E94060488
:1036E00097FFA9C00E94F6010091C7011091C8017F
:1036F0002091C9013091CA01601B710B820B930BA1
:103700000091C3011091C4012091C5013091C601FF
:103710006017710782079307F8F24091B201609138
:10372000B1018091B0010E942203C114D10409F4B7
:103730003CCF0E94000031CFC0E066CF813509F454
:1037400043C0803809F452C0803509F0ABCF88EC13
:103750000E94A40986FFA6CF309237020E94F6018C
:103760006C5E7F4F8F4F9F4F6093AC017093AD01A4
:103770008093AE019093AF0195CF0E94F601009126
:10378000AC011091AD012091AE013091AF01601BF1
:10379000710B820B930B97FD85CF61E088EE0E9441
:1037A000DE08409237027ECF88EE0E94A40980FD99
:1037B00079CF88ED0E94A409682F686088ED0E9487
:1037C000DE08609237026ECF0E94F6010091AC01D4
:1037D0001091AD012091AE013091AF01601B710BD2
:1037E000820B930B97FD5ECF209237022C2F40E087
:1037F00060E08CE692E00E949D0D882339F0823DC6
:1038000009F450CFE0EAE09337024CCF50923702F0
:1038100049CF833409F081CF7092360240E060E0F6
:1038200080E00E9422031092360240E060E080E0D7
:103830000E94220372CF8993F1E0C23BDF0709F0B7
:1038400041CF6BCFEE0FFF1F0590F491E02D09944F
:10385000DC0101C06D9341505040E0F70895F894A9
:02386000FFCF98
:10386200FFFFFFFF00E100000000000000C18081B7
:1038720000000000000000870600000000CA0700E8
:10388200000000E003CA030104F60348040604240E
:1038920004000000006204DB04A0048504000000B0
:1038A200004D12B308200840141D08B208B00818D1
:1038B2000813080A083F080708CB07FEFF0000FDAF
:1038C2000700000000F710B3082605F60F4D059C0F
:1038D20010B00848058506000000006E061906F7BC
:1038E20005000000004908AF08AF08AF08AF08AFF5
:0638F20008AF08AF08005A
:00000001FF
